:100000000C942A000C9434000C9434000C943400AA
:100010000C9434000C9434000C9434000C94340090
:100020000C9434000C9434000C9434000C94340080
:100030000C9434000C9434000C9434000C94340070
:100040000C9434000C9434000C9434000C94340060
:100050000C94340011241FBECFE5D8E0DEBFCDBF25
:100060000E9436000C945D000C9400008FE08ABB67
:1000700020E030E061E070E048EC50E0CB01022E7F
:1000800002C0880F991F0A94E2F78BBB80E197E2C8
:10009000FA013197F1F70197D9F71BBA80E197E29E
:1000A000FA013197F1F70197D9F72F5F3F4F2430CD
:0E00B000310524F320E030E0E1CFF894FFCFDB
:00000001FF
